[
["The following are deserialized transactions which are invalid."],
["They are in the form"],
["[[[prevout hash, prevout index, prevout scriptPubKey, amount?], [input 2], ...],"],
["serializedTransaction, verifyFlags]"],
["Objects that are only a single string (like this one) are ignored"],
["With extra junk appended to the end of the scriptPubKey"],
[[["27587a10248001f424ad94bb55cd6cd6086a0e05767173bdbdf647187beca76c",0," 0x41 0x0455717f5a81172265af899b6a88211992e1ce2e90c9e72741bd2485166ce8c903e5347b8fd8471df0c25d4e2d36584f6cf8f7b1bc208cb7a3ed6db3c902b8d2ba CHECKSIG VERIFY 1"]],"01000000000000000127587a10248001f424ad94bb55cd6cd6086a0e05767173bdbdf647187beca76c000000004847304402206a2e9f07044e3ac55b64b0bb4592159dab9b1936b9e8abb190537d3ceba54aae02203b57837b5238748ef80767ef2a26cf11e9fb887c03f66b2c23702a90111c4e8c01ffffffff0101000000000000000201510c0000000000000000010101010000000000","P2SH,STRICTENC"],
["This is a nearly-standard transaction with CHECKSIGVERIFY 1 instead of CHECKSIG"],
["but with the signature duplicated in the scriptPubKey with a non-standard pushdata prefix"],
["See FindAndDelete, which will only remove if it uses the same pushdata prefix as is standard"],
[[["0001000000000000000000000000000000000000000000000000000000000000",0,"DUP HASH160 0x15 0x66664ef47326b98d4fd93d85e9d3eb0a1fb6b37fc2 IFLAG_EQUALVERIFY CHECKSIGVERIFY 1  0x4c 0x41 0x0496e1531389902587a6c7df5530364ed10dc6a412d11cea9e687b4a5cd4a66be5eeea3a00d3e91f0e28f7c2d6b264bc67801901624b65b56632f4fb76590f6742"]],"0100000000000000010001000000000000000000000000000000000000000000000000000000000000000000006b483045022100ef2c13b8fa6355c89e08f3b0d6323bdac192d1a10065c8248ca77085595b88210220424b964479c090798c38ade86f83493d941e551957a0d55a334426e5ebf4265f01210296e1531389902587a6c7df5530364ed10dc6a412d11cea9e687b4a5cd4a66be5ffffffff0101000000000000000201510c0000000000000000010101010000000000","P2SH,STRICTENC"],
["Same as above, but with the sig in the scriptSig also pushed with the same non-standard OP_PUSHDATA"],
[[["0001000000000000000000000000000000000000000000000000000000000000",0,"DUP HASH160 0x15 0x66664ef47326b98d4fd93d85e9d3eb0a1fb6b37fc2 IFLAG_EQUALVERIFY CHECKSIGVERIFY 1 "]],"0100000000000000010001000000000000000000000000000000000000000000000000000000000000000000006d4c49493045022100ef2c13b8fa6355c89e08f3b0d6323bdac192d1a10065c8248ca77085595b88210220424b964479c090798c38ade86f83493d941e551957a0d55a334426e5ebf4265f01210296e1531389902587a6c7df5530364ed10dc6a412d11cea9e687b4a5cd4a66be5ffffffff0101000000000000000201510c0000000000000000010101010000000000","P2SH,STRICTENC"],
["This is the nearly-standard transaction with CHECKSIGVERIFY 1 instead of CHECKSIG"],
["but with the signature duplicated in the scriptPubKey with a different hashtype suffix"],
["See FindAndDelete, which will only remove if the signature, including the hash type, matches"],
[[["0001000000000000000000000000000000000000000000000000000000000000",0,"DUP HASH160 0x15 0x66664ef47326b98d4fd93d85e9d3eb0a1fb6b37fc2 IFLAG_EQUALVERIFY CHECKSIGVERIFY 1  0x4c 0x41 0x0496e1531389902587a6c7df5530364ed10dc6a412d11cea9e687b4a5cd4a66be5eeea3a00d3e91f0e28f7c2d6b264bc67801901624b65b56632f4fb76590f6742"]],"0100000000000000010001000000000000000000000000000000000000000000000000000000000000000000006b48304502210085b0776225f87b31f933ab12a5468ed8bb427aaeda8119f63e8137fff3e2b14802203d8a6bf5786f2a0004359758af067de668f64cf8135d97e791093dc1bfc9ef2a03210296e1531389902587a6c7df5530364ed10dc6a412d11cea9e687b4a5cd4a66be5ffffffff0101000000000000000201510c0000000000000000010101010000000000","P2SH,STRICTENC"],
["An invalid P2SH Transaction"],
[[["0001000000000000000000000000000000000000000000000000000000000000",0,"HASH160  0x15 0x66664ef47326b98d4fd93d85e9d3eb0a1fb6b37fc2 IFLAG_EQUAL"]],"0100000000000000010001000000000000000000000000000000000000000000000000000000000000000000000a09085768617420697320ffffffff0101000000000000000201510c0000000000000000010101010000000000","P2SH,STRICTENC"],
["Simple transaction with first input is signed with SIGHASH_ALL, second with SIGHASH_ANYONECANPAY"],
[", but we set the _ANYONECANPAY sequence number, invalidating the SIGHASH_ALL signature"],
[[["0001000000000000000000000000000000000000000000000000000000000000",0," 0x41 0x0455717f5a81172265af899b6a88211992e1ce2e90c9e72741bd2485166ce8c903e5347b8fd8471df0c25d4e2d36584f6cf8f7b1bc208cb7a3ed6db3c902b8d2ba CHECKSIG"],["0002000000000000000000000000000000000000000000000000000000000000",1," 0x41 0x0455717f5a81172265af899b6a88211992e1ce2e90c9e72741bd2485166ce8c903e5347b8fd8471df0c25d4e2d36584f6cf8f7b1bc208cb7a3ed6db3c902b8d2ba CHECKSIG"]],"0100000000000000020001000000000000000000000000000000000000000000000000000000000000000000004847304402200862e9c5fbbd301162c05b42de6e431be432de8a2c510b547622daecc751f76202202e4c4af0326592a2bf0c63b47764ebb7ba3822be2076cea81cb478880449be5701ffffffff00020000000000000000000000000000000000000000000000000000000000000100000049483045022100859a7857fd64488a92f44e0ab6472f7e4a7f1a2d5648b9cc0d4eee086f0aab3502206c969e55b5aaacc7c34116a83f7ce36c78fdd4855d205844abea5ec93ae353e981010000000101000000000000000201510c0000000000000000010101010000000000","P2SH,STRICTENC"],
["It is an OP_CHECKMULTISIG with a dummy value"],
[[["b14bdcbc3e01bdaad36cc08e81e69c82e1060bc14e518db2b49aa43ad90ba260",0,"1 0x41 0x0455717f5a81172265af899b6a88211992e1ce2e90c9e72741bd2485166ce8c903e5347b8fd8471df0c25d4e2d36584f6cf8f7b1bc208cb7a3ed6db3c902b8d2ba 0x41 0x04ab43ef16b302e8e62448f886d66bf9f6d3865dffb8442320fc86bb71267e2a4d8242c1704ccbe69898ff7aa4e254dbb02bf0914a4e2da5642a7b422de9771569 2 OP_CHECKMULTISIG"]],"010000000000000001b14bdcbc3e01bdaad36cc08e81e69c82e1060bc14e518db2b49aa43ad90ba260000000004900473044022011345a0246d3a63536dd8c874c08cb55c533095a3705d6b5034c44fc7299889302203a100bb501d2aaf234a14a67a3040939a1cd7bc64065f4cbe2d9c88f5b67cf6c01ffffffff0100000000000000000201510c0000000000000000010101010000000000","P2SH,STRICTENC,CLEANSTACK"],
["CHECKMULTISIG with incorrect signature order"],
["Note the input is just required to make the tester happy"],
[[["b14bdcbc3e01bdaad36cc08e81e69c82e1060bc14e518db2b49aa43ad90ba260",0,"HASH160 0x15 0x73b1ce99298d5f07364b57b1e5c9cc00be0b04a954 IFLAG_EQUAL"]],"010000000000000001b14bdcbc3e01bdaad36cc08e81e69c82e1060bc14e518db2b49aa43ad90ba26000000000fd01014cff000048304502207aacee820e08b0b174e248abd8d7a34ed63b5da3abedb99934df9fddd65c05c4022100dfe87896ab5ee3df476c2655f9fbe5bd089dccbef3e4ea05b5d121169fe7f5f401483045022100f6649b0eddfdfd4ad55426663385090d51ee86c3481bdc6b0c18ea6c0ece2c0b0220561c315b07cffa6f7dd9df96dbae9200c2dee09bf93cc35ca05e6cdf613340aa014c695221031d11db38972b712a9fe1fc023577c7ae3ddb4a3004187d41c45121eecfdbb5b7210207ec36911b6ad2382860d32989c7b8728e9489d7bbc94a6b5509ef0029be128821024ea9fac06f666a4adc3fc1357b7bec1fd0bdece2b9d08579226a8ebde53058e453aeffffffff0100000000000000000201510c0000000000000000010101010000000000","P2SH,STRICTENC"],
["Make diffs cleaner by leaving a comment here without comma at the end"]
]
